:030000000200B843
:03000B0002001ED2
:10001B000200590523758C63758AC0C28DA923B95B
:10002B00322B0522752300A922B93C21052175220B
:10003B0000A921B93C0D0520752100A920B9180391
:10004B00752000E531B52105E530B5200032E533EB
:10005B00B40008AB22AC21AD208006AB32AC31AD85
:10006B0030C28F758D10758B6085249075F00AAA40
:10007B0024BAFE03EB801EBAFD03EB801DBAFB0313
:10008B00EC8012BAF703EC8011BAEF03ED8006BADD
:10009B00DFDFED800584E5F0800184792629F9E71F
:1000AB00F5A0E524B4DF02232323F5243275200CBD
:1000BB00752100752200753025753100753200757C
:1000CB0023007526C07527F97528A47529B0752AE4
:1000DB0099752B92752C82752DF8752E80752F982E
:1000EB007524FE758C63758ABF758D10758B607565
:0B00FB008920D28CD28E75A88A80FE6E
:00000001FF
