:0300000002015AA0
:03000300020027D1
:030013000200499F
:03000B0002006B85
:10001B000200AA7F1E7EFFDEFEDFFA22111E20B237
:10002B001920B40C0521E521B43C0F752100800A81
:10003B000531E531B43C0375310030B2FD32111E90
:10004B0020B31920B40C0520E520B4180F7520003F
:10005B00800A0530E530B4180375300030B3FD323B
:10006B000523758C3C758AB1C28DA923B9142F0554
:10007B0022752300A922B93C25D2B0052175220097
:10008B00A921B93C0D0520752100A920B9180375CC
:10009B002000E531B52107E530B52002C2B0322092
:1000AB00B408AB22AC21AD208006AB32AC31AD3005
:1000BB00C28F758DB1758BE085249075F00AAA24DB
:1000CB00BAFE03EB801EBAFD03EB801DBAFB03ECFB
:1000DB008012BAF703EC8011BAEF03ED8006BADF9A
:1000EB00DFED800584E5F0800184792629F9E7F5B9
:1000FB00A0E524B4DF02232323F5243275200C75ED
:10010B0021007522007530007531007532007523A2
:10011B00007526C07527F97528A47529B0752A991D
:10012B00752B92752C82752DF8752E80752F987501
:10013B0024FED2B0758C3C758AB1758DB1758BE090
:10014B00758901D28CD28E75A88FD28AD288223132
:03015B000780FE1C
:00000001FF
