:0300000002009E5D
:03000B0002001ED2
:10001B000200530523A923B9140F800CA922B93C64
:10002B000F8005A921B93C0F32052275230080EC06
:10003B00052175220080EC0520752100A920B91837
:10004B000280E575200080E085248075F00A900021
:10005B00B0AA24BAFE0FBAFD10BAFB11BAF712BA46
:10006B00EF13BADF14E5228014E5228015E5218019
:10007B000CE521800DE5208004E520800584E5F06A
:10008B0080018493F5A0E524B5DF028002232323AE
:10009B00F5243275200C752100752200752300752F
:1000AB0024FE758921014F12064C24200E00067583
:1000BB008C3C758CB0758DFF758D38D2AFD28CD2D0
:0500CB00A9D28ED2ABAA
:00000001FF
